{
  "contractName": "HashMarket",
  "abi": [
    {
      "constant": true,
      "inputs": [
        {
          "name": "",
          "type": "address"
        }
      ],
      "name": "_pendingWithdrawals",
      "outputs": [
        {
          "name": "",
          "type": "uint256"
        }
      ],
      "payable": false,
      "stateMutability": "view",
      "type": "function"
    },
    {
      "anonymous": false,
      "inputs": [
        {
          "indexed": false,
          "name": "name",
          "type": "bytes32"
        },
        {
          "indexed": false,
          "name": "price",
          "type": "uint256"
        },
        {
          "indexed": false,
          "name": "seller",
          "type": "address"
        }
      ],
      "name": "ItemAdded",
      "type": "event"
    },
    {
      "anonymous": false,
      "inputs": [
        {
          "indexed": false,
          "name": "itemID",
          "type": "uint256"
        },
        {
          "indexed": false,
          "name": "buyer",
          "type": "address"
        },
        {
          "indexed": false,
          "name": "seller",
          "type": "address"
        }
      ],
      "name": "ItemPurchased",
      "type": "event"
    },
    {
      "anonymous": false,
      "inputs": [
        {
          "indexed": false,
          "name": "itemID",
          "type": "uint256"
        }
      ],
      "name": "ItemRemoved",
      "type": "event"
    },
    {
      "anonymous": false,
      "inputs": [
        {
          "indexed": false,
          "name": "owner",
          "type": "address"
        },
        {
          "indexed": false,
          "name": "amount",
          "type": "uint256"
        }
      ],
      "name": "FundsPulled",
      "type": "event"
    },
    {
      "constant": false,
      "inputs": [
        {
          "name": "name",
          "type": "bytes32"
        },
        {
          "name": "price",
          "type": "uint256"
        }
      ],
      "name": "addNewItem",
      "outputs": [
        {
          "name": "",
          "type": "uint256"
        }
      ],
      "payable": false,
      "stateMutability": "nonpayable",
      "type": "function"
    },
    {
      "constant": true,
      "inputs": [
        {
          "name": "itemID",
          "type": "uint256"
        }
      ],
      "name": "getItem",
      "outputs": [
        {
          "name": "",
          "type": "bytes32"
        },
        {
          "name": "",
          "type": "uint256"
        },
        {
          "name": "",
          "type": "address"
        },
        {
          "name": "",
          "type": "uint256"
        }
      ],
      "payable": false,
      "stateMutability": "view",
      "type": "function"
    },
    {
      "constant": false,
      "inputs": [
        {
          "name": "itemID",
          "type": "uint256"
        }
      ],
      "name": "buyItem",
      "outputs": [],
      "payable": true,
      "stateMutability": "payable",
      "type": "function"
    },
    {
      "constant": false,
      "inputs": [
        {
          "name": "itemID",
          "type": "uint256"
        }
      ],
      "name": "removeItem",
      "outputs": [],
      "payable": false,
      "stateMutability": "nonpayable",
      "type": "function"
    },
    {
      "constant": false,
      "inputs": [],
      "name": "pullFunds",
      "outputs": [
        {
          "name": "",
          "type": "bool"
        }
      ],
      "payable": false,
      "stateMutability": "nonpayable",
      "type": "function"
    }
  ],
  "bytecode": "0x608060405234801561001057600080fd5b50610a17806100206000396000f300608060405260043610610078576000357c0100000000000000000000000000000000000000000000000000000000900463ffffffff16806301338d5d1461007d5780633129e773146100cc5780637132917114610156578063c3662b2814610183578063e43a0bb2146101da578063e7fb74c714610209575b600080fd5b34801561008957600080fd5b506100b6600480360381019080803560001916906020019092919080359060200190929190505050610229565b6040518082815260200191505060405180910390f35b3480156100d857600080fd5b506100f7600480360381019080803590602001909291905050506103b8565b6040518085600019166000191681526020018481526020018373ffffffffffffffffffffffffffffffffffffffff1673ffffffffffffffffffffffffffffffffffffffff16815260200182815260200194505050505060405180910390f35b34801561016257600080fd5b50610181600480360381019080803590602001909291905050506104b9565b005b34801561018f57600080fd5b506101c4600480360381019080803573ffffffffffffffffffffffffffffffffffffffff16906020019092919050505061064d565b6040518082815260200191505060405180910390f35b3480156101e657600080fd5b506101ef610665565b604051808215151515815260200191505060405180910390f35b610227600480360381019080803590602001909291905050506107af565b005b600080608060405190810160405280856000191681526020018481526020013373ffffffffffffffffffffffffffffffffffffffff1681526020016000600281111561027157fe5b81525090806001815401808255809150509060018203906000526020600020906003020160009091929091909150600082015181600001906000191690556020820151816001015560408201518160020160006101000a81548173ffffffffffffffffffffffffffffffffffffffff021916908373ffffffffffffffffffffffffffffffffffffffff16021790555060608201518160020160146101000a81548160ff0219169083600281111561032457fe5b02179055505050507f1417a1fe8928926d99d994b5448477f9b5c50107df1474d7cad96769b9fd0ac88383336040518084600019166000191681526020018381526020018273ffffffffffffffffffffffffffffffffffffffff1673ffffffffffffffffffffffffffffffffffffffff168152602001935050505060405180910390a1600160008054905003905092915050565b600080600080600085600073ffffffffffffffffffffffffffffffffffffffff166000828154811015156103e857fe5b906000526020600020906003020160020160009054906101000a900473ffffffffffffffffffffffffffffffffffffffff1673ffffffffffffffffffffffffffffffffffffffff161415151561043d57600080fd5b60008781548110151561044c57fe5b90600052602060002090600302019150816000015482600101548360020160009054906101000a900473ffffffffffffffffffffffffffffffffffffffff168460020160149054906101000a900460ff1660028111156104a857fe5b955095509550955050509193509193565b600081600073ffffffffffffffffffffffffffffffffffffffff166000828154811015156104e357fe5b906000526020600020906003020160020160009054906101000a900473ffffffffffffffffffffffffffffffffffffffff1673ffffffffffffffffffffffffffffffffffffffff161415151561053857600080fd5b60008381548110151561054757fe5b906000526020600020906003020191503373ffffffffffffffffffffffffffffffffffffffff168260020160009054906101000a900473ffffffffffffffffffffffffffffffffffffffff1673ffffffffffffffffffffffffffffffffffffffff161415156105b557600080fd5b600060028111156105c257fe5b8260020160149054906101000a900460ff1660028111156105df57fe5b1415156105eb57600080fd5b60028260020160146101000a81548160ff0219169083600281111561060c57fe5b02179055507fa54eda4149a0fb9258911733973ecf1f6762357ed371fc6d1e63123bbce23bed836040518082815260200191505060405180910390a1505050565b60016020528060005260406000206000915090505481565b6000806000600160003373ffffffffffffffffffffffffffffffffffffffff1673ffffffffffffffffffffffffffffffffffffffff168152602001908152602001600020541115156106b657600080fd5b600160003373ffffffffffffffffffffffffffffffffffffffff1673ffffffffffffffffffffffffffffffffffffffff1681526020019081526020016000205490503373ffffffffffffffffffffffffffffffffffffffff166108fc829081150290604051600060405180830381858888f19350505050156107a6577f1a6b3ffc38e569eb77b736c56f6d826b44ad9f3df5f63ec4eac3dcb444668ea53382604051808373ffffffffffffffffffffffffffffffffffffffff1673ffffffffffffffffffffffffffffffffffffffff1681526020018281526020019250505060405180910390a1600191506107ab565b600091505b5090565b600081600073ffffffffffffffffffffffffffffffffffffffff166000828154811015156107d957fe5b906000526020600020906003020160020160009054906101000a900473ffffffffffffffffffffffffffffffffffffffff1673ffffffffffffffffffffffffffffffffffffffff161415151561082e57600080fd5b60008381548110151561083d57fe5b906000526020600020906003020191506000600281111561085a57fe5b8260020160149054906101000a900460ff16600281111561087757fe5b14151561088357600080fd5b34826001015414151561089557600080fd5b34600160008460020160009054906101000a900473ffffffffffffffffffffffffffffffffffffffff1673ffffffffffffffffffffffffffffffffffffffff1673ffffffffffffffffffffffffffffffffffffffff1681526020019081526020016000208190555060018260020160146101000a81548160ff0219169083600281111561091e57fe5b02179055507f3d33dab2887eb74204441fe6858b6ee245b3875af43d57969005ca2ea686395083338460020160009054906101000a900473ffffffffffffffffffffffffffffffffffffffff16604051808481526020018373ffffffffffffffffffffffffffffffffffffffff1673ffffffffffffffffffffffffffffffffffffffff1681526020018273ffffffffffffffffffffffffffffffffffffffff1673ffffffffffffffffffffffffffffffffffffffff168152602001935050505060405180910390a15050505600a165627a7a72305820e8919c1005c813f8377b9cdf7c64c547b48808b93bafbed122ca3df69ab8f1270029",
  "source": "pragma solidity ^0.4.23;\n\ncontract HashMarket {\n\n    // Track the state of the items, while preserving history\n    enum ItemStatus {\n        active,\n        sold,\n        removed\n    }\n\n    struct Item {\n        bytes32 name;\n        uint price;\n        address seller;\n        ItemStatus status;\n    }\n\n    event ItemAdded(bytes32 name, uint price, address seller);\n    event ItemPurchased(uint itemID, address buyer, address seller);\n    event ItemRemoved(uint itemID);\n    event FundsPulled(address owner, uint amount);\n\n    Item[] private _items;\n    mapping (address => uint) public _pendingWithdrawals;\n\n    modifier onlyIfItemExists(uint itemID) {\n        require(_items[itemID].seller != address(0));\n        _;\n    }\n\n    function addNewItem(bytes32 name, uint price) public returns (uint) {\n\n        _items.push(Item({\n            name: name,\n            price: price,\n            seller: msg.sender,\n            status: ItemStatus.active\n        }));\n\n        emit ItemAdded(name, price, msg.sender);\n        // Item is pushed to the end, so the lenth is used for\n        // the ID of the item\n        return _items.length - 1;\n    }\n\n    function getItem(uint itemID) public view onlyIfItemExists(itemID)\n    returns (bytes32, uint, address, uint) {\n\n        Item storage item = _items[itemID];\n        return (item.name, item.price, item.seller, uint(item.status));\n    }\n\n    function buyItem(uint itemID) public payable onlyIfItemExists(itemID) {\n\n        Item storage currentItem = _items[itemID];\n\n        require(currentItem.status == ItemStatus.active);\n        require(currentItem.price == msg.value);\n\n        _pendingWithdrawals[currentItem.seller] = msg.value;\n        currentItem.status = ItemStatus.sold;\n\n        emit ItemPurchased(itemID, msg.sender, currentItem.seller);\n}\n\n    function removeItem(uint itemID) public onlyIfItemExists(itemID) {\n        Item storage currentItem = _items[itemID];\n\n        require(currentItem.seller == msg.sender);\n        require(currentItem.status == ItemStatus.active);\n\n        currentItem.status = ItemStatus.removed;\n\n        emit ItemRemoved(itemID);\n    }\n\n    function pullFunds() public returns (bool) {\n        require(_pendingWithdrawals[msg.sender] > 0);\n\n        uint outstandingFundsAmount = _pendingWithdrawals[msg.sender];\n\n        if (msg.sender.send(outstandingFundsAmount)) {\n            emit FundsPulled(msg.sender, outstandingFundsAmount);\n            return true;\n        } else {\n            return false;\n        }\n    }\n}",
  "sourcePath": "/Users/dameongreen/Ethereum-Course-projects/HashMarket/contracts/HashMarket.sol",
  "compiler": {
    "name": "solc",
    "version": "0.4.23+commit.124ca40d.Emscripten.clang"
  },
  "schemaVersion": "2.0.0",
  "updatedAt": "2018-08-27T15:58:43.438Z"
}